:100000000C943A000C944F000C944F000C944F0049
:100010000C944F000C944F000C944F000C944F0024
:100020000C944F000C944F000C944F000C944F0014
:100030000C944F000C944F000C944F000C944F0004
:100040000C944F000C944F000C944F000C944F00F4
:100050000C944F00680372037C03860390039A0399
:10006000A403AE03CE03DE03EE03FE030E041E0460
:100070002E043E0411241FBECFE5D8E0DEBFCDBF65
:1000800010E0A0E6B0E0E4E3F1E102C005900D92DB
:10009000A83BB107D9F70E9451000C9498080C9422
:1000A0000000CF93DF93CDB7DEB72A970FB6F89451
:1000B000DEBF0FBECDBF0E947D020E94C20267E07C
:1000C00081E00E94430341E063E082E00E94550426
:1000D00041E064E082E00E94550441E065E082E096
:1000E0000E94550441E066E082E00E9455042FEF33
:1000F00083EC99E0215080409040E1F700C000007F
:1001000041E063E082E00E94C6042FEF81EE94E0BC
:10011000215080409040E1F700C0000080E00E9444
:10012000C4038FE99FE00197F1F700C0000080E071
:100130000E94C4039C01220F331F220F331F820F22
:10014000931F192F1695169540E063E082E00E94F8
:10015000C60441E064E082E00E94C6049FEF21EE05
:1001600084E0915020408040E1F700C0000080E032
:100170000E94C4038FE99FE00197F1F700C00000DF
:1001800080E00E94C4039C01220F331F220F331F03
:10019000820F931FD92ED694D69440E064E082E07B
:1001A0000E94C60482E00E94C4038FE99FE0019789
:1001B000F1F700C0000082E00E94C4039C01220FFE
:1001C000331F220F331F820F931FB92EB694B6949C
:1001D00041E065E082E00E94C6049FEF21EE84E0EA
:1001E000915020408040E1F700C0000083E00E9471
:1001F000C4038FE99FE00197F1F700C0000083E09E
:100200000E94C4039C01220F331F220F331F820F51
:10021000931FA92EA694A69440E065E082E00E9478
:10022000C60441E066E082E00E94C6049FEF21EE32
:1002300084E0915020408040E1F700C0000083E05E
:100240000E94C4038FE99FE00197F1F700C000000E
:1002500083E00E94C4039C01220F331F220F331F2F
:10026000820F931FC92EC694C69440E066E082E0D8
:100270000E94C6041F921F930F2EF0E6EF2EF0E0AF
:10028000FF2EF02DFF92EF928E010A5F1F4F1F93FA
:100290000F930E949E05B801CE0101960E945A0557
:1002A0001F92DF92FF92EF921F930F930E949E0581
:1002B000B801CE0101960E945A051F92BF92FF928B
:1002C000EF921F930F930E949E05B801CE010196F5
:1002D0000E945A051F92AF92FF92EF921F930F93C5
:1002E0000E949E05B801CE0101960E945A051F92F8
:1002F000CF92FF92EF921F930F930E949E05B80139
:10030000CE0101960E945A05CE0101960E943C053D
:100310008C010E94C202CE0101960E94130380E26A
:100320000E94C602B80180E090E00E9426030FB64A
:10033000F894DEBF0FBECDBF0C3591E1190709F46B
:100340006DC0D0F40832110509F440C040F4011525
:10035000110561F10130110509F468C077C0083B4F
:1003600081E0180759F108F471C0085714400939A1
:10037000184008F443C06AC00C3F8DE9180771F1BA
:1003800038F4085F1A42013F154508F43FC05EC0CB
:10039000083B80EA180708F459C0013599EA1907A3
:1003A00008F44CC00C391D4A09F150C080EC0E9481
:1003B000300283E690E00E9413034FC080EC0E945D
:1003C000300289E690E00E94130347C080EC0E944F
:1003D000300284E790E00E9413033FC080EC0E944B
:1003E000300280E790E00E94130337C080EC0E9447
:1003F000300286E890E00E9413032FC080EC0E9438
:1004000030028AE890E00E94130327C080EC0E942B
:1004100030028DE890E00E9413031FC080EC0E9420
:10042000300285E990E00E94130317C080EC0E941F
:1004300030028EE990E00E9413030FC080EC0E940E
:10044000300287EA90E00E94130307C080EC0E940C
:1004500030028EEA90E00E9413031E82198247CE7A
:10046000CF93C82F40E061E081E00E94C60440E0E5
:1004700062E081E00E94C60440E063E081E00E9407
:10048000C6048FE99FE00197F1F700C000008BB32D
:100490009C2F907F8F70892B8BBB41E063E081E0C4
:1004A0000E94C6048FE99FE00197F1F700C00000A9
:1004B00040E063E081E00E94C60420E1C29FC001E9
:1004C00011249BB39F70892B8BBB41E063E081E0DB
:1004D0000E94C6048FE99FE00197F1F700C0000079
:1004E00040E063E081E00E94C6048FE39FE1019752
:1004F000F1F700C00000CF91089541E061E081E094
:100500000E94550441E062E081E00E94550441E010
:1005100063E081E00E94550441E064E080E00E94D5
:10052000550441E065E080E00E94550441E066E04A
:1005300080E00E94550441E067E080E00E9455049D
:100540008FE39FE10197F1F700C0000083E30E9471
:10055000300282E30E94300288E20E94300281E091
:100560000E94300282E00E94300286E00E94300247
:100570008CE00E9430028FE19EE40197F1F700C009
:100580000000089581E00E9430020895CF93C82FA3
:1005900041E061E081E00E94C60440E062E081E069
:1005A0000E94C60440E063E081E00E94C6048FE937
:1005B0009FE00197F1F700C000008BB39C2F907F64
:1005C0008F70892B8BBB41E063E081E00E94C60401
:1005D0008FE99FE00197F1F700C0000040E063E081
:1005E00081E00E94C60420E1C29FC00111249BB398
:1005F0009F70892B8BBB41E063E081E00E94C604C1
:100600008FE99FE00197F1F700C0000040E063E050
:1006100081E00E94C6048FE39FE10197F1F700C0DB
:100620000000CF910895CF93DF93EC0109C00E94A1
:10063000C6028FE39FE10197F1F700C00000219609
:1006400088818111F4CFDF91CF910895CF93DF930B
:10065000CDB7DEB72A970FB6F894DEBF0FBECDBF79
:100660002AE0AE014F5F5F4F0E946505CE01019603
:100670000E9413032A960FB6F894DEBF0FBECDBFBB
:10068000DF91CF910895813059F018F0823079F0E0
:1006900014C087B18F7787B987B18F7B87B90DC0B9
:1006A00087B18F7787B987B1806487B906C087B172
:1006B000806887B987B1806487B9862F90E08830D9
:1006C000910508F054C0FC01E65DFF4F0C9436051F
:1006D00086B18B7F86B986B18D7F86B986B18E7FD4
:1006E00086B945C086B18B7F86B986B18D7F86B9C4
:1006F00086B1816086B93BC086B18B7F86B986B1F1
:10070000826086B986B18E7F86B931C086B18B7F13
:1007100086B986B1826086B986B1816086B927C004
:1007200086B1846086B986B18D7F86B986B18E7FA9
:1007300086B91DC086B1846086B986B18D7F86B9C1
:1007400086B1816086B913C086B1846086B986B1EE
:10075000826086B986B18E7F86B909C086B1846011
:1007600086B986B1826086B986B1816086B986B164
:10077000806886B986B1877F86B986B1806286B97E
:1007800087B18F7D87B9089590E08830910508F092
:1007900084C0FC01EE5CFF4F0C94360587B18F7E60
:1007A00087B987B1877F87B987B18B7F87B987B1D1
:1007B0008D7F87B987B18E7F87B96FC087B18F7EF4
:1007C00087B987B1877F87B987B18B7F87B987B1B1
:1007D0008D7F87B987B1816087B95FC087B18F7E10
:1007E00087B987B1877F87B987B18B7F87B987B191
:1007F000826087B987B18E7F87B94FC087B18F7EFE
:1008000087B987B1877F87B987B18B7F87B987B170
:10081000826087B987B1816087B93FC087B18F7E19
:1008200087B987B1877F87B987B1846087B987B176
:100830008D7F87B987B18E7F87B92FC087B18F7EB3
:1008400087B987B1877F87B987B1846087B987B156
:100850008D7F87B987B1816087B91FC087B18F7ECF
:1008600087B987B1877F87B987B1846087B987B136
:10087000826087B987B18E7F87B90FC087B18F7EBD
:1008800087B987B1877F87B987B1846087B987B116
:10089000826087B987B1816087B986B1806486B983
:1008A0003499FECF84B195B108954423B9F1413014
:1008B00009F06BC0813089F028F08230C9F08330B4
:1008C00011F108952AB381E090E002C0880F991FCA
:1008D0006A95E2F7822B8ABB089527B381E090E006
:1008E00002C0880F991F6A95E2F7822B87BB089593
:1008F00024B381E090E002C0880F991F6A95E2F767
:10090000822B84BB089521B381E090E002C0880F60
:10091000991F6A95E2F7822B81BB0895813091F08F
:1009200028F08230D9F0833029F108952AB381E08C
:1009300090E002C0880F991F6A95E2F780958223A4
:100940008ABB089527B381E090E002C0880F991F09
:100950006A95E2F78095822387BB089524B381E0EE
:1009600090E002C0880F991F6A95E2F78095822374
:1009700084BB089521B381E090E002C0880F991FE5
:100980006A95E2F78095822381BB08954130A1F5F5
:10099000813089F028F08230C9F0833011F1089558
:1009A0002BB381E090E002C0880F991F6A95E2F7AF
:1009B000822B8BBB089528B381E090E002C0880FA2
:1009C000991F6A95E2F7822B88BB089525B381E0D1
:1009D00090E002C0880F991F6A95E2F7822B85BBD1
:1009E000089522B381E090E002C0880F991F6A95B4
:1009F000E2F7822B82BB0895411137C0813091F01C
:100A000028F08230D9F0833029F108952BB381E0AA
:100A100090E002C0880F991F6A95E2F780958223C3
:100A20008BBB089528B381E090E002C0880F991F26
:100A30006A95E2F78095822388BB089525B381E00B
:100A400090E002C0880F991F6A95E2F78095822393
:100A500085BB089522B381E090E002C0880F991F02
:100A60006A95E2F78095822382BB0895EE0FFF1FFF
:100A70000590F491E02D0994FC0188279927E894CA
:100A800021912032E9F3293010F02E30C8F32B32B7
:100A900041F02D3239F4689404C00E947405820F2D
:100AA000911D219120532A30C0F31EF49095819519
:100AB0009F4F0895FB01DC010D900020E9F711978D
:100AC00001900D920020E1F70895BB272A3051F4E0
:100AD000992342F4BDE290958095709561957F4F82
:100AE0008F4F9F4F0C947D057AE0979F902D879FA5
:100AF000802D910D11240895BB27FA01A62F6217AE
:100B0000710581059105330B30FB66F0AA27660F4E
:100B1000771F881F991FAA1FA21710F0A21B6395A9
:100B20003850A9F7A05DAA3308F0A95DA19336F764
:100B3000B111B1931082CA010C94B707AEE0B0E0D6
:100B4000E4EAF5E00C946F080D891E8986E08C8339
:100B50001A8309838FEF9FE79E838D83AE01475EE3
:100B60005F4F6F89788DCE0101960E94C005EF819D
:100B7000F885E00FF11F10822E96E4E00C948B08AC
:100B8000ABE0B0E0E6ECF5E00C9461086C017B01B1
:100B90008A01FC0117821682838181FFCCC1CE01BC
:100BA00001963C01F6019381F70193FD859193FF36
:100BB00081917F01882309F4BAC1853239F493FD0C
:100BC000859193FF81917F01853229F4B60190E0F0
:100BD0000E94C707E7CF912C212C312CFFE1F315A0
:100BE000D8F08B3279F038F4803279F08332A1F486
:100BF000232D20611DC08D3261F0803369F4232DD7
:100C0000216016C0832D8260382EE32DE4603E2ED5
:100C10002AC0F32DF8601DC037FC2DC020ED280F31
:100C20002A3040F08E32B9F436FC81C1232D206485
:100C3000322E19C036FE06C08AE0989E200D11247F
:100C4000922E11C0EAE02E9E200D1124222EF32DAB
:100C5000F0623F2E08C08C3621F4832D8068382E38
:100C600002C0883641F4F70193FD859193FF81918D
:100C70007F018111B3CF982F9F7D9554933028F435
:100C80000C5F1F4F9FE399830DC0833631F083378C
:100C900071F0833509F059C021C0F8018081898342
:100CA0000E5F1F4F88248394912C530113C0280199
:100CB000F2E04F0E511CF801A080B18036FE03C057
:100CC000692D70E002C06FEF7FEFC5010E94AC0795
:100CD0004C018201F32DFF773F2E16C0280122E040
:100CE000420E511CF801A080B18036FE03C0692D70
:100CF00070E002C06FEF7FEFC5010E94A1074C01B9
:100D0000F32DF0683F2E820133FC1BC0822D90E052
:100D100088169906B0F4B60180E290E00E94C707F9
:100D20002A94F4CFF50137FC859137FE81915F015C
:100D3000B60190E00E94C70721102A9421E0821A90
:100D400091088114910471F7E8C0843611F0893656
:100D500041F5F80137FE07C060817181828193817E
:100D60000C5F1F4F08C060817181072E000C880B3B
:100D7000990B0E5F1F4FF32DFF763F2E97FF09C093
:100D800090958095709561957F4F8F4F9F4FF0683C
:100D90003F2E2AE030E0A3010E940308882E861827
:100DA00045C0853731F4232D2F7EB22E2AE030E066
:100DB00025C0932D997FB92E8F36C1F018F4883550
:100DC00079F0B5C0803719F0883721F0B0C0E92F2D
:100DD000E061BE2EB4FE0DC0FB2DF460BF2E09C035
:100DE00034FE0AC0292F2660B22E06C028E030E06B
:100DF00005C020E130E002C020E132E0F801B7FE9A
:100E000007C060817181828193810C5F1F4F06C092
:100E10006081718180E090E00E5F1F4FA3010E940E
:100E20000308882E8618FB2DFF773F2E36FE0DC057
:100E3000232D2E7FA22E891458F434FE0BC032FCD1
:100E400009C0832D8E7EA82E05C0B82CA32C03C00C
:100E5000B82C01C0B92CA4FE0FC0FE01E80DF11D95
:100E60008081803321F49A2D997EA92E09C0A2FE9B
:100E700006C0B394B39404C08A2D867809F0B39465
:100E8000A3FC11C0A0FE06C0B21488F4280C922C5A
:100E90009B180EC0B21460F4B60180E290E00E948C
:100EA000C707B394F7CFB21418F42B1802C0982CCC
:100EB000212CA4FE10C0B60180E390E00E94C70779
:100EC000A2FE17C0A1FC03C088E790E002C088E53D
:100ED00090E0B6010CC08A2D867859F0A1FE02C0C0
:100EE0008BE201C080E2A7FC8DE2B60190E00E9497
:100EF000C707891438F4B60180E390E00E94C70761
:100F00009A94F7CF8A94F301E80DF11D8081B60120
:100F100090E00E94C7078110F5CF222009F442CE4D
:100F2000B60180E290E00E94C7072A94F6CFF6014E
:100F30008681978102C08FEF9FEF2B96E2E10C94A0
:100F40007D08FC010590615070400110D8F7809534
:100F500090958E0F9F1F0895FC0161507040019085
:100F60000110D8F7809590958E0F9F1F0895DC0192
:100F7000FC01672F71917723E1F7329704C07C91D0
:100F80006D9370836291AE17BF07C8F308950F93F6
:100F90001F93CF93DF93FB01238121FD03C08FEFCC
:100FA0009FEF2CC022FF16C04681578124813581D6
:100FB0004217530744F4A081B1819D012F5F3F4F39
:100FC000318320838C93268137812F5F3F4F378376
:100FD000268314C08B01EC01FB010084F185E02D18
:100FE0000995892BE1F6D80116968D919C9117975A
:100FF000019617969C938E931697CE01DF91CF9111
:101000001F910F910895FA01AA27283051F120313C
:1010100081F1E8946F936E7F6E5F7F4F8F4F9F4F8C
:10102000AF4FB1E03ED0B4E03CD0670F781F891FCE
:101030009A1FA11D680F791F8A1F911DA11D6A0F9C
:10104000711D811D911DA11D20D009F468943F914F
:101050002AE0269F11243019305D3193DEF6CF014E
:101060000895462F4770405D4193B3E00FD0C9F714
:10107000F6CF462F4F70405D4A3318F0495D31FD81
:101080004052419302D0A9F7EACFB4E0A6959795D4
:10109000879577956795BA95C9F7009761057105AA
:1010A00008959B01AC010A2E0694579547953795F4
:1010B0002795BA95C9F7620F731F841F951FA01D4E
:1010C00008952F923F924F925F926F927F928F92EC
:1010D0009F92AF92BF92CF92DF92EF92FF920F93C7
:1010E0001F93CF93DF93CDB7DEB7CA1BDB0B0FB6D1
:1010F000F894DEBF0FBECDBF09942A88398848888E
:101100005F846E847D848C849B84AA84B984C88423
:10111000DF80EE80FD800C811B81AA81B981CE0F1A
:10112000D11D0FB6F894DEBF0FBECDBFED010895FF
:04113000F894FFCF61
:1011340025640048454C4C4F0049204C4F564520EF
:10114400594F550049205245414C4C59204C4F565B
:101154004520594F5500594553004E4F00504552B4
:101164004645435400474F4F44204A4F420051459F
:101174005354494F4E3F00514F55544553004C4F23
:081184004144494E472E2E00A4
:00000001FF
